{"abi":[{"type":"constructor","inputs":[{"name":"_kttyToken","type":"address","internalType":"address"}],"stateMutability":"nonpayable"},{"type":"function","name":"ADMIN_ROLE","inputs":[],"outputs":[{"name":"","type":"bytes32","internalType":"bytes32"}],"stateMutability":"view"},{"type":"function","name":"DEFAULT_ADMIN_ROLE","inputs":[],"outputs":[{"name":"","type":"bytes32","internalType":"bytes32"}],"stateMutability":"view"},{"type":"function","name":"EMERGENCY_ROLE","inputs":[],"outputs":[{"name":"","type":"bytes32","internalType":"bytes32"}],"stateMutability":"view"},{"type":"function","name":"FUND_MANAGER_ROLE","inputs":[],"outputs":[{"name":"","type":"bytes32","internalType":"bytes32"}],"stateMutability":"view"},{"type":"function","name":"TIER_MANAGER_ROLE","inputs":[],"outputs":[{"name":"","type":"bytes32","internalType":"bytes32"}],"stateMutability":"view"},{"type":"function","name":"addRewardTokenToTier","inputs":[{"name":"tierId","type":"uint256","internalType":"uint256"},{"name":"tokenAddress","type":"address","internalType":"address"}],"outputs":[],"stateMutability":"nonpayable"},{"type":"function","name":"addTier","inputs":[{"name":"name","type":"string","internalType":"string"},{"name":"minStake","type":"uint256","internalType":"uint256"},{"name":"maxStake","type":"uint256","internalType":"uint256"},{"name":"lockupPeriod","type":"uint256","internalType":"uint256"},{"name":"apy","type":"uint256","internalType":"uint256"}],"outputs":[],"stateMutability":"nonpayable"},{"type":"function","name":"calculateReward","inputs":[{"name":"stakeId","type":"uint256","internalType":"uint256"},{"name":"tokenAddress","type":"address","internalType":"address"}],"outputs":[{"name":"","type":"uint256","internalType":"uint256"}],"stateMutability":"view"},{"type":"function","name":"claimRewardsAndWithdraw","inputs":[{"name":"stakeId","type":"uint256","internalType":"uint256"}],"outputs":[],"stateMutability":"nonpayable"},{"type":"function","name":"emergencyWithdraw","inputs":[{"name":"tokenAddress","type":"address","internalType":"address"},{"name":"to","type":"address","internalType":"address"},{"name":"amount","type":"uint256","internalType":"uint256"}],"outputs":[],"stateMutability":"nonpayable"},{"type":"function","name":"getRewardTokenCount","inputs":[],"outputs":[{"name":"","type":"uint256","internalType":"uint256"}],"stateMutability":"view"},{"type":"function","name":"getRoleAdmin","inputs":[{"name":"role","type":"bytes32","internalType":"bytes32"}],"outputs":[{"name":"","type":"bytes32","internalType":"bytes32"}],"stateMutability":"view"},{"type":"function","name":"getStake","inputs":[{"name":"stakeId","type":"uint256","internalType":"uint256"}],"outputs":[{"name":"id","type":"uint256","internalType":"uint256"},{"name":"owner","type":"address","internalType":"address"},{"name":"amount","type":"uint256","internalType":"uint256"},{"name":"tierId","type":"uint256","internalType":"uint256"},{"name":"startTime","type":"uint256","internalType":"uint256"},{"name":"endTime","type":"uint256","internalType":"uint256"},{"name":"hasWithdrawn","type":"bool","internalType":"bool"},{"name":"_hasClaimedRewards","type":"bool","internalType":"bool"}],"stateMutability":"view"},{"type":"function","name":"getTierCount","inputs":[],"outputs":[{"name":"","type":"uint256","internalType":"uint256"}],"stateMutability":"view"},{"type":"function","name":"getTierRewardTokens","inputs":[{"name":"tierId","type":"uint256","internalType":"uint256"}],"outputs":[{"name":"","type":"address[]","internalType":"address[]"}],"stateMutability":"view"},{"type":"function","name":"getUserStakes","inputs":[{"name":"owner","type":"address","internalType":"address"}],"outputs":[{"name":"","type":"uint256[]","internalType":"uint256[]"}],"stateMutability":"view"},{"type":"function","name":"grantRole","inputs":[{"name":"role","type":"bytes32","internalType":"bytes32"},{"name":"account","type":"address","internalType":"address"}],"outputs":[],"stateMutability":"nonpayable"},{"type":"function","name":"hasClaimedRewards","inputs":[{"name":"stakeId","type":"uint256","internalType":"uint256"}],"outputs":[{"name":"","type":"bool","internalType":"bool"}],"stateMutability":"view"},{"type":"function","name":"hasRole","inputs":[{"name":"role","type":"bytes32","internalType":"bytes32"},{"name":"account","type":"address","internalType":"address"}],"outputs":[{"name":"","type":"bool","internalType":"bool"}],"stateMutability":"view"},{"type":"function","name":"kttyToken","inputs":[],"outputs":[{"name":"","type":"address","internalType":"contract IERC20"}],"stateMutability":"view"},{"type":"function","name":"pause","inputs":[],"outputs":[],"stateMutability":"nonpayable"},{"type":"function","name":"paused","inputs":[],"outputs":[{"name":"","type":"bool","internalType":"bool"}],"stateMutability":"view"},{"type":"function","name":"registerRewardToken","inputs":[{"name":"tokenAddress","type":"address","internalType":"address"},{"name":"symbol","type":"string","internalType":"string"},{"name":"rewardRate","type":"uint256","internalType":"uint256"}],"outputs":[],"stateMutability":"nonpayable"},{"type":"function","name":"removeRewardTokenFromTier","inputs":[{"name":"tierId","type":"uint256","internalType":"uint256"},{"name":"tokenAddress","type":"address","internalType":"address"}],"outputs":[],"stateMutability":"nonpayable"},{"type":"function","name":"renounceRole","inputs":[{"name":"role","type":"bytes32","internalType":"bytes32"},{"name":"callerConfirmation","type":"address","internalType":"address"}],"outputs":[],"stateMutability":"nonpayable"},{"type":"function","name":"revokeRole","inputs":[{"name":"role","type":"bytes32","internalType":"bytes32"},{"name":"account","type":"address","internalType":"address"}],"outputs":[],"stateMutability":"nonpayable"},{"type":"function","name":"rewardTokenAddresses","inputs":[{"name":"","type":"uint256","internalType":"uint256"}],"outputs":[{"name":"","type":"address","internalType":"address"}],"stateMutability":"view"},{"type":"function","name":"rewardTokens","inputs":[{"name":"","type":"address","internalType":"address"}],"outputs":[{"name":"symbol","type":"string","internalType":"string"},{"name":"tokenAddress","type":"address","internalType":"address"},{"name":"rewardRate","type":"uint256","internalType":"uint256"},{"name":"isActive","type":"bool","internalType":"bool"}],"stateMutability":"view"},{"type":"function","name":"stake","inputs":[{"name":"amount","type":"uint256","internalType":"uint256"},{"name":"tierId","type":"uint256","internalType":"uint256"}],"outputs":[],"stateMutability":"nonpayable"},{"type":"function","name":"stakeExists","inputs":[{"name":"stakeId","type":"uint256","internalType":"uint256"}],"outputs":[{"name":"","type":"bool","internalType":"bool"}],"stateMutability":"view"},{"type":"function","name":"supportsInterface","inputs":[{"name":"interfaceId","type":"bytes4","internalType":"bytes4"}],"outputs":[{"name":"","type":"bool","internalType":"bool"}],"stateMutability":"view"},{"type":"function","name":"tierIds","inputs":[{"name":"","type":"uint256","internalType":"uint256"}],"outputs":[{"name":"","type":"uint256","internalType":"uint256"}],"stateMutability":"view"},{"type":"function","name":"tiers","inputs":[{"name":"","type":"uint256","internalType":"uint256"}],"outputs":[{"name":"id","type":"uint256","internalType":"uint256"},{"name":"name","type":"string","internalType":"string"},{"name":"minStake","type":"uint256","internalType":"uint256"},{"name":"maxStake","type":"uint256","internalType":"uint256"},{"name":"lockupPeriod","type":"uint256","internalType":"uint256"},{"name":"apy","type":"uint256","internalType":"uint256"},{"name":"isActive","type":"bool","internalType":"bool"}],"stateMutability":"view"},{"type":"function","name":"unpause","inputs":[],"outputs":[],"stateMutability":"nonpayable"},{"type":"function","name":"updateRewardToken","inputs":[{"name":"tokenAddress","type":"address","internalType":"address"},{"name":"rewardRate","type":"uint256","internalType":"uint256"},{"name":"isActive","type":"bool","internalType":"bool"}],"outputs":[],"stateMutability":"nonpayable"},{"type":"function","name":"updateTier","inputs":[{"name":"id","type":"uint256","internalType":"uint256"},{"name":"name","type":"string","internalType":"string"},{"name":"minStake","type":"uint256","internalType":"uint256"},{"name":"maxStake","type":"uint256","internalType":"uint256"},{"name":"lockupPeriod","type":"uint256","internalType":"uint256"},{"name":"apy","type":"uint256","internalType":"uint256"},{"name":"isActive","type":"bool","internalType":"bool"}],"outputs":[],"stateMutability":"nonpayable"},{"type":"function","name":"withdraw","inputs":[{"name":"stakeId","type":"uint256","internalType":"uint256"}],"outputs":[],"stateMutability":"nonpayable"},{"type":"event","name":"AllRewardsClaimed","inputs":[{"name":"stakeId","type":"uint256","indexed":true,"internalType":"uint256"},{"name":"owner","type":"address","indexed":true,"internalType":"address"}],"anonymous":false},{"type":"event","name":"ContractPaused","inputs":[{"name":"by","type":"address","indexed":true,"internalType":"address"}],"anonymous":false},{"type":"event","name":"ContractUnpaused","inputs":[{"name":"by","type":"address","indexed":true,"internalType":"address"}],"anonymous":false},{"type":"event","name":"EmergencyWithdrawal","inputs":[{"name":"token","type":"address","indexed":true,"internalType":"address"},{"name":"to","type":"address","indexed":true,"internalType":"address"},{"name":"amount","type":"uint256","indexed":false,"internalType":"uint256"}],"anonymous":false},{"type":"event","name":"Paused","inputs":[{"name":"account","type":"address","indexed":false,"internalType":"address"}],"anonymous":false},{"type":"event","name":"RewardClaimed","inputs":[{"name":"stakeId","type":"uint256","indexed":true,"internalType":"uint256"},{"name":"owner","type":"address","indexed":true,"internalType":"address"},{"name":"token","type":"address","indexed":true,"internalType":"address"},{"name":"amount","type":"uint256","indexed":false,"internalType":"uint256"}],"anonymous":false},{"type":"event","name":"RewardTokenRegistered","inputs":[{"name":"tokenAddress","type":"address","indexed":true,"internalType":"address"},{"name":"symbol","type":"string","indexed":false,"internalType":"string"},{"name":"rewardRate","type":"uint256","indexed":false,"internalType":"uint256"}],"anonymous":false},{"type":"event","name":"RewardTokenUpdated","inputs":[{"name":"tokenAddress","type":"address","indexed":true,"internalType":"address"},{"name":"rewardRate","type":"uint256","indexed":false,"internalType":"uint256"},{"name":"isActive","type":"bool","indexed":false,"internalType":"bool"}],"anonymous":false},{"type":"event","name":"RoleAdminChanged","inputs":[{"name":"role","type":"bytes32","indexed":true,"internalType":"bytes32"},{"name":"previousAdminRole","type":"bytes32","indexed":true,"internalType":"bytes32"},{"name":"newAdminRole","type":"bytes32","indexed":true,"internalType":"bytes32"}],"anonymous":false},{"type":"event","name":"RoleGranted","inputs":[{"name":"role","type":"bytes32","indexed":true,"internalType":"bytes32"},{"name":"account","type":"address","indexed":true,"internalType":"address"},{"name":"sender","type":"address","indexed":true,"internalType":"address"}],"anonymous":false},{"type":"event","name":"RoleRevoked","inputs":[{"name":"role","type":"bytes32","indexed":true,"internalType":"bytes32"},{"name":"account","type":"address","indexed":true,"internalType":"address"},{"name":"sender","type":"address","indexed":true,"internalType":"address"}],"anonymous":false},{"type":"event","name":"StakeWithdrawn","inputs":[{"name":"stakeId","type":"uint256","indexed":true,"internalType":"uint256"},{"name":"owner","type":"address","indexed":true,"internalType":"address"},{"name":"amount","type":"uint256","indexed":false,"internalType":"uint256"}],"anonymous":false},{"type":"event","name":"Staked","inputs":[{"name":"stakeId","type":"uint256","indexed":true,"internalType":"uint256"},{"name":"owner","type":"address","indexed":true,"internalType":"address"},{"name":"amount","type":"uint256","indexed":false,"internalType":"uint256"},{"name":"tierId","type":"uint256","indexed":false,"internalType":"uint256"},{"name":"startTime","type":"uint256","indexed":false,"internalType":"uint256"},{"name":"endTime","type":"uint256","indexed":false,"internalType":"uint256"}],"anonymous":false},{"type":"event","name":"TierCreated","inputs":[{"name":"tierId","type":"uint256","indexed":true,"internalType":"uint256"},{"name":"name","type":"string","indexed":false,"internalType":"string"},{"name":"minStake","type":"uint256","indexed":false,"internalType":"uint256"},{"name":"lockupPeriod","type":"uint256","indexed":false,"internalType":"uint256"},{"name":"apy","type":"uint256","indexed":false,"internalType":"uint256"}],"anonymous":false},{"type":"event","name":"TierRewardTokenAdded","inputs":[{"name":"tierId","type":"uint256","indexed":true,"internalType":"uint256"},{"name":"tokenAddress","type":"address","indexed":true,"internalType":"address"}],"anonymous":false},{"type":"event","name":"TierRewardTokenRemoved","inputs":[{"name":"tierId","type":"uint256","indexed":true,"internalType":"uint256"},{"name":"tokenAddress","type":"address","indexed":true,"internalType":"address"}],"anonymous":false},{"type":"event","name":"TierUpdated","inputs":[{"name":"tierId","type":"uint256","indexed":true,"internalType":"uint256"},{"name":"name","type":"string","indexed":false,"internalType":"string"},{"name":"minStake","type":"uint256","indexed":false,"internalType":"uint256"},{"name":"lockupPeriod","type":"uint256","indexed":false,"internalType":"uint256"},{"name":"apy","type":"uint256","indexed":false,"internalType":"uint256"},{"name":"isActive","type":"bool","indexed":false,"internalType":"bool"}],"anonymous":false},{"type":"event","name":"Unpaused","inputs":[{"name":"account","type":"address","indexed":false,"internalType":"address"}],"anonymous":false},{"type":"error","name":"AccessControlBadConfirmation","inputs":[]},{"type":"error","name":"AccessControlUnauthorizedAccount","inputs":[{"name":"account","type":"address","internalType":"address"},{"name":"neededRole","type":"bytes32","internalType":"bytes32"}]},{"type":"error","name":"DuplicateRewardToken","inputs":[]},{"type":"error","name":"EmergencyWithdrawalFailed","inputs":[]},{"type":"error","name":"EnforcedPause","inputs":[]},{"type":"error","name":"ExpectedPause","inputs":[]},{"type":"error","name":"InsufficientBalance","inputs":[]},{"type":"error","name":"InvalidAmount","inputs":[]},{"type":"error","name":"InvalidLockupPeriod","inputs":[]},{"type":"error","name":"InvalidRange","inputs":[]},{"type":"error","name":"InvalidRewardRate","inputs":[]},{"type":"error","name":"InvalidStakeId","inputs":[]},{"type":"error","name":"InvalidTier","inputs":[]},{"type":"error","name":"LockupNotCompleted","inputs":[]},{"type":"error","name":"ReentrancyGuardReentrantCall","inputs":[]},{"type":"error","name":"RewardAlreadyClaimed","inputs":[]},{"type":"error","name":"RewardAmountTooLow","inputs":[]},{"type":"error","name":"SafeERC20FailedOperation","inputs":[{"name":"token","type":"address","internalType":"address"}]},{"type":"error","name":"StakeNotFound","inputs":[]},{"type":"error","name":"StakingLocked","inputs":[]},{"type":"error","name":"StakingNotLocked","inputs":[]},{"type":"error","name":"TierAlreadyExists","inputs":[]},{"type":"error","name":"TierDoesNotExist","inputs":[]},{"type":"error","name":"TokenNotRegistered","inputs":[]},{"type":"error","name":"UnauthorizedWithdrawal","inputs":[]}],"bytecode":{"object":"0x608060405234801562000010575f80fd5b5060405162005058380380620050588339818101604052810190620000369190620003b1565b600180819055505f73ffffffffffffffffffffffffffffffffffffffff168173ffffffffffffffffffffffffffffffffffffffff1603620000ae576040517f08c379a0000000000000000000000000000000000000000000000000000000008152600401620000a59062000465565b60405180910390fd5b80600260016101000a81548173ffffffffffffffffffffffffffffffffffffffff021916908373ffffffffffffffffffffffffffffffffffffffff160217905550620001035f801b33620001e760201b60201c565b50620001367fa49807205ce4d355092ef5a8a18f56e8913cf4a201fbe287825b095693c2177533620001e760201b60201c565b50620001697f89caa9c901210ccd1a8670bb882b6bafb334eb4b114af790aeee702939f7a1fe33620001e760201b60201c565b506200019c7f0b84ee281e5cf521a9ad54a86fafe78946b157177e231bd8ae785af4d3b3620f33620001e760201b60201c565b50620001cf7fbf233dd2aafeb4d50879c4aa5c81e96d92f6e6945c906a58f9f2d1c1631b4b2633620001e760201b60201c565b50600160038190555060016004819055505062000485565b5f620001fa8383620002e260201b60201c565b620002d85760015f808581526020019081526020015f205f015f8473ffffffffffffffffffffffffffffffffffffffff1673ffffffffffffffffffffffffffffffffffffffff1681526020019081526020015f205f6101000a81548160ff021916908315150217905550620002746200034560201b60201c565b73ffffffffffffffffffffffffffffffffffffffff168273ffffffffffffffffffffffffffffffffffffffff16847f2f8788117e7eff1d82e926ec794901d17c78024a50270940304540a733656f0d60405160405180910390a460019050620002dc565b5f90505b92915050565b5f805f8481526020019081526020015f205f015f8373ffffffffffffffffffffffffffffffffffffffff1673ffffffffffffffffffffffffffffffffffffffff1681526020019081526020015f205f9054906101000a900460ff16905092915050565b5f33905090565b5f80fd5b5f73ffffffffffffffffffffffffffffffffffffffff82169050919050565b5f6200037b8262000350565b9050919050565b6200038d816200036f565b811462000398575f80fd5b50565b5f81519050620003ab8162000382565b92915050565b5f60208284031215620003c957620003c86200034c565b5b5f620003d8848285016200039b565b91505092915050565b5f82825260208201905092915050565b7f4b54545920746f6b656e20616464726573732063616e6e6f74206265207a65725f8201527f6f00000000000000000000000000000000000000000000000000000000000000602082015250565b5f6200044d602183620003e1565b91506200045a82620003f1565b604082019050919050565b5f6020820190508181035f8301526200047e816200043f565b9050919050565b614bc580620004935f395ff3fe608060405234801561000f575f80fd5b5060043610610225575f3560e01c806367184e281161012e57806391d14854116100b6578063e63ea4081161007a578063e63ea40814610692578063ed19ecc5146106ae578063f0eaf127146106cc578063f5ab16cc146106e8578063f9b23b041461071b57610225565b806391d14854146105c1578063a18f07a0146105f1578063a217fddf14610621578063ce325bf81461063f578063d547741f1461067657610225565b80637c9984e3116100fd5780637c9984e31461050957806382e5d07314610539578063842e2981146105575780638456cb59146105875780638de21a571461059157610225565b806367184e281461048157806375b238fc1461049f5780637b0472f0146104bd5780637b2d9b2c146104d957610225565b80632e1a7d4d116101b157806336568abe1161018057806336568abe146103f15780633f4ba83a1461040d57806355f5576e146104175780635c975abb1461044757806360c590201461046557610225565b80632e1a7d4d1461036b5780632f285709146103875780632f2ff15d146103b75780632f83a6bc146103d357610225565b80631bf85d1d116101f85780631bf85d1d146102c757806320df4359146102e3578063248a9ca3146103015780632a2b6a72146103315780632cf320d21461034f57610225565b806301ffc9a714610229578063039af9eb14610259578063167a30011461028f578063195ea247146102ab575b5f80fd5b610243600480360381019061023e91906139cf565b610737565b6040516102509190613a14565b60405180910390f35b610273600480360381019061026e9190613a60565b6107b0565b6040516102869796959493929190613b24565b60405180910390f35b6102a960048036038101906102a49190613bf2565b610880565b005b6102c560048036038101906102c09190613d5c565b610b9c565b005b6102e160048036038101906102dc9190613a60565b610e32565b005b6102eb611370565b6040516102f89190613e07565b60405180910390f35b61031b60048036038101906103169190613e4a565b611394565b6040516103289190613e07565b60405180910390f35b6103396113b0565b6040516103469190613e07565b60405180910390f35b61036960048036038101906103649190613bf2565b6113d4565b005b61038560048036038101906103809190613a60565b6116b1565b005b6103a1600480360381019061039c9190613a60565b611903565b6040516103ae9190613e75565b60405180910390f35b6103d160048036038101906103cc9190613e8e565b611923565b005b6103db611945565b6040516103e89190613e07565b60405180910390f35b61040b60048036038101906104069190613e8e565b611969565b005b6104156119e4565b005b610431600480360381019061042c9190613a60565b611a5c565b60405161043e9190613a14565b60405180910390f35b61044f611ac7565b60405161045c9190613a14565b60405180910390f35b61047f600480360381019061047a9190613ef6565b611adc565b005b610489611cf5565b6040516104969190613e75565b60405180910390f35b6104a7611d01565b6040516104b49190613e07565b60405180910390f35b6104d760048036038101906104d29190613f46565b611d25565b005b6104f360048036038101906104ee9190613a60565b6121f4565b6040516105009190613f93565b60405180910390f35b610523600480360381019061051e9190613a60565b61222f565b6040516105309190614063565b60405180910390f35b6105416122ce565b60405161054e9190613e75565b60405180910390f35b610571600480360381019061056c9190614083565b6122da565b60405161057e9190614165565b60405180910390f35b61058f61236d565b005b6105ab60048036038101906105a69190613a60565b612454565b6040516105b89190613a14565b60405180910390f35b6105db60048036038101906105d69190613e8e565b612473565b6040516105e89190613a14565b60405180910390f35b61060b60048036038101906106069190613bf2565b6124d6565b6040516106189190613e75565b60405180910390f35b610629612818565b6040516106369190613e07565b60405180910390f35b61065960048036038101906106549190613a60565b61281e565b60405161066d989796959493929190614185565b60405180910390f35b610690600480360381019061068b9190613e8e565b6128f1565b005b6106ac60048036038101906106a79190614201565b612913565b005b6106b6612bb7565b6040516106c391906142ac565b60405180910390f35b6106e660048036038101906106e191906142c5565b612bdd565b005b61070260048036038101906106fd9190614083565b612ed5565b604051610712949392919061437e565b60405180910390f35b610735600480360381019061073091906143c8565b612fb2565b005b5f7f7965db0b000000000000000000000000000000000000000000000000000000007bffffffffffffffffffffffffffffffffffffffffffffffffffffffff1916827bffffffffffffffffffffffffffffffffffffffffffffffffffffffff191614806107a957506107a8826132f1565b5b9050919050565b6005602052805f5260405f205f91509050805f0154908060010180546107d590614461565b80601f016020809104026020016040519081016040528092919081815260200182805461080190614461565b801561084c5780601f106108235761010080835404028352916020019161084c565b820191905f5260205f20905b81548152906001019060200180831161082f57829003601f168201915b505050505090806002015490806003015490806004015490806005015490806006015f9054906101000a900460ff16905087565b7f89caa9c901210ccd1a8670bb882b6bafb334eb4b114af790aeee702939f7a1fe6108aa8161335a565b5f60055f8581526020019081526020015f2060020154036108f7576040517f5f633df800000000000000000000000000000000000000000000000000000000815260040160405180910390fd5b5f80805f90505b60055f8781526020019081526020015f20600701805490508110156109bc578473ffffffffffffffffffffffffffffffffffffffff1660055f8881526020019081526020015f20600701828154811061095a57610959614491565b5b905f5260205f20015f9054906101000a900473ffffffffffffffffffffffffffffffffffffffff1673ffffffffffffffffffffffffffffffffffffffff16036109a957600192508091506109bc565b80806109b4906144eb565b9150506108fe565b50816109f4576040517f259ba1ad00000000000000000000000000000000000000000000000000000000815260040160405180910390fd5b600160055f8781526020019081526020015f2060070180549050610a189190614532565b8114610afb5760055f8681526020019081526020015f20600701600160055f8881526020019081526020015f2060070180549050610a569190614532565b81548110610a6757610a66614491565b5b905f5260205f20015f9054906101000a900473ffffffffffffffffffffffffffffffffffffffff1660055f8781526020019081526020015f206007018281548110610ab557610ab4614491565b5b905f5260205f20015f6101000a81548173ffffffffffffffffffffffffffffffffffffffff021916908373ffffffffffffffffffffffffffffffffffffffff1602179055505b60055f8681526020019081526020015f20600701805480610b1f57610b1e614565565b5b600190038181905f5260205f20015f6101000a81549073ffffffffffffffffffffffffffffffffffffffff021916905590558373ffffffffffffffffffffffffffffffffffffffff16857f25ccb422543ed675ecc27c886c92bfaf7d54b39447a0ab2b55daeba2310c54cd60405160405180910390a35050505050565b7f89caa9c901210ccd1a8670bb882b6bafb334eb4b114af790aeee702939f7a1fe610bc68161335a565b5f8503610bff576040517f2c5211c600000000000000000000000000000000000000000000000000000000815260040160405180910390fd5b5f8303610c38576040517f1578094300000000000000000000000000000000000000000000000000000000815260040160405180910390fd5b5f84118015610c475750848411155b15610c7e576040517f561ce9bb00000000000000000000000000000000000000000000000000000000815260040160405180910390fd5b5f60045f815480929190610c91906144eb565b9190505590505f6201518085610ca79190614592565b90506040518061010001604052808381526020018981526020018881526020018781526020018281526020018581526020016001151581526020015f67ffffffffffffffff811115610cfc57610cfb613c38565b5b604051908082528060200260200182016040528015610d2a5781602001602082028036833780820191505090505b5081525060055f8481526020019081526020015f205f820151815f01556020820151816001019081610d5c9190614767565b5060408201518160020155606082015181600301556080820151816004015560a0820151816005015560c0820151816006015f6101000a81548160ff02191690831515021790555060e0820151816007019080519060200190610dc09291906138c7565b50905050600682908060018154018082558091505060019003905f5260205f20015f9091909190915055817f6a11b609fa46ee9a457a505fdbab82d52b066e85506e8bcfb821f88df01e30a889898488604051610e209493929190614836565b60405180910390a25050505050505050565b610e3a61336e565b5f60095f8381526020019081526020015f2090505f815f01541480610e62575081815f015414155b15610e99576040517f8c877d2100000000000000000000000000000000000000000000000000000000815260040160405180910390fd5b3373ffffffffffffffffffffffffffffffffffffffff16816001015f9054906101000a900473ffffffffffffffffffffffffffffffffffffffff1673ffffffffffffffffffffffffffffffffffffffff1614610f21576040517f60b39bc500000000000000000000000000000000000000000000000000000000815260040160405180910390fd5b8060050154421015610f5f576040517f32eead4500000000000000000000000000000000000000000000000000000000815260040160405180910390fd5b8060060160019054906101000a900460ff1615610fa8576040517fb3f8c0dc00000000000000000000000000000000000000000000000000000000815260040160405180910390fd5b806006015f9054906101000a900460ff1615610ff0576040517f360b29d300000000000000000000000000000000000000000000000000000000815260040160405180910390fd5b60018160060160016101000a81548160ff0219169083151502179055506001816006015f6101000a81548160ff0219169083151502179055505f60055f836003015481526020019081526020015f209050611092338360020154600260019054906101000a900473ffffffffffffffffffffffffffffffffffffffff1673ffffffffffffffffffffffffffffffffffffffff166133b49092919063ffffffff16565b5f620f4240826005015484600201546110ab9190614592565b6110b591906148ad565b90505f8111156111955761110c3382600260019054906101000a900473ffffffffffffffffffffffffffffffffffffffff1673ffffffffffffffffffffffffffffffffffffffff166133b49092919063ffffffff16565b600260019054906101000a900473ffffffffffffffffffffffffffffffffffffffff1673ffffffffffffffffffffffffffffffffffffffff163373ffffffffffffffffffffffffffffffffffffffff16857fd7566a1f449b7ee89a6af29f319e117c231ea862057eb65395ca2bf70283b1c88460405161118c9190613e75565b60405180910390a45b5f5b826007018054905081101561130e575f8360070182815481106111bd576111bc614491565b5b905f5260205f20015f9054906101000a900473ffffffffffffffffffffffffffffffffffffffff16905060075f8273ffffffffffffffffffffffffffffffffffffffff1673ffffffffffffffffffffffffffffffffffffffff1681526020019081526020015f206003015f9054906101000a900460ff16156112fa575f620f4240856005015487600201546112529190614592565b61125c91906148ad565b90505f8111156112f85761129133828473ffffffffffffffffffffffffffffffffffffffff166133b49092919063ffffffff16565b8173ffffffffffffffffffffffffffffffffffffffff163373ffffffffffffffffffffffffffffffffffffffff16887fd7566a1f449b7ee89a6af29f319e117c231ea862057eb65395ca2bf70283b1c8846040516112ef9190613e75565b60405180910390a45b505b508080611306906144eb565b915050611197565b503373ffffffffffffffffffffffffffffffffffffffff16847f459d5aef2c549903c1eeb1736f5728845d5ccf82537ddd5bf8035795eee89263856002015460405161135a9190613e75565b60405180910390a350505061136d613433565b50565b7fbf233dd2aafeb4d50879c4aa5c81e96d92f6e6945c906a58f9f2d1c1631b4b2681565b5f805f8381526020019081526020015f20600101549050919050565b7f89caa9c901210ccd1a8670bb882b6bafb334eb4b114af790aeee702939f7a1fe81565b7f89caa9c901210ccd1a8670bb882b6bafb334eb4b114af790aeee702939f7a1fe6113fe8161335a565b5f60055f8581526020019081526020015f20600201540361144b576040517f5f633df800000000000000000000000000000000000000000000000000000000815260040160405180910390fd5b5f73ffffffffffffffffffffffffffffffffffffffff1660075f8473ffffffffffffffffffffffffffffffffffffffff1673ffffffffffffffffffffffffffffffffffffffff1681526020019081526020015f206001015f9054906101000a900473ffffffffffffffffffffffffffffffffffffffff1673ffffffffffffffffffffffffffffffffffffffff160361150f576040517f259ba1ad00000000000000000000000000000000000000000000000000000000815260040160405180910390fd5b5f5b60055f8581526020019081526020015f20600701805490508110156115f5578273ffffffffffffffffffffffffffffffffffffffff1660055f8681526020019081526020015f20600701828154811061156d5761156c614491565b5b905f5260205f20015f9054906101000a900473ffffffffffffffffffffffffffffffffffffffff1673ffffffffffffffffffffffffffffffffffffffff16036115e2576040517f70d8436400000000000000000000000000000000000000000000000000000000815260040160405180910390fd5b80806115ed906144eb565b915050611511565b5060055f8481526020019081526020015f2060070182908060018154018082558091505060019003905f5260205f20015f9091909190916101000a81548173ffffffffffffffffffffffffffffffffffffffff021916908373ffffffffffffffffffffffffffffffffffffffff1602179055508173ffffffffffffffffffffffffffffffffffffffff16837fa95c4b6ebb54384c24235ba0e4958a39e53ff9390446ce9104265a2c8ccec33d60405160405180910390a3505050565b6116b961336e565b5f60095f8381526020019081526020015f2090505f815f015414806116e1575081815f015414155b15611718576040517f8c877d2100000000000000000000000000000000000000000000000000000000815260040160405180910390fd5b3373ffffffffffffffffffffffffffffffffffffffff16816001015f9054906101000a900473ffffffffffffffffffffffffffffffffffffffff1673ffffffffffffffffffffffffffffffffffffffff16146117a0576040517f60b39bc500000000000000000000000000000000000000000000000000000000815260040160405180910390fd5b806006015f9054906101000a900460ff16156117e8576040517f360b29d300000000000000000000000000000000000000000000000000000000815260040160405180910390fd5b80600501544210801561180057506117fe611ac7565b155b15611837576040517f32eead4500000000000000000000000000000000000000000000000000000000815260040160405180910390fd5b6001816006015f6101000a81548160ff0219169083151502179055506118a4338260020154600260019054906101000a900473ffffffffffffffffffffffffffffffffffffffff1673ffffffffffffffffffffffffffffffffffffffff166133b49092919063ffffffff16565b3373ffffffffffffffffffffffffffffffffffffffff16827f459d5aef2c549903c1eeb1736f5728845d5ccf82537ddd5bf8035795eee8926383600201546040516118ef9190613e75565b60405180910390a350611900613433565b50565b60068181548110611912575f80fd5b905f5260205f20015f915090505481565b61192c82611394565b6119358161335a565b61193f838361343c565b50505050565b7f0b84ee281e5cf521a9ad54a86fafe78946b157177e231bd8ae785af4d3b3620f81565b611971613525565b73ffffffffffffffffffffffffffffffffffffffff168173ffffffffffffffffffffffffffffffffffffffff16146119d5576040517f6697b23200000000000000000000000000000000000000000000000000000000815260040160405180910390fd5b6119df828261352c565b505050565b7fa49807205ce4d355092ef5a8a18f56e8913cf4a201fbe287825b095693c21775611a0e8161335a565b611a16613615565b3373ffffffffffffffffffffffffffffffffffffffff167f5b65b0c1363b3003db9bcc5e1fd8805a6d6bf5bf6dc9d3431ee4494cd7d1176660405160405180910390a250565b5f8060095f8481526020019081526020015f2090505f815f015403611aad576040517f8c877d2100000000000000000000000000000000000000000000000000000000815260040160405180910390fd5b8060060160019054906101000a900460ff16915050919050565b5f60025f9054906101000a900460ff16905090565b7f0b84ee281e5cf521a9ad54a86fafe78946b157177e231bd8ae785af4d3b3620f611b068161335a565b5f73ffffffffffffffffffffffffffffffffffffffff1660075f8673ffffffffffffffffffffffffffffffffffffffff1673ffffffffffffffffffffffffffffffffffffffff1681526020019081526020015f206001015f9054906101000a900473ffffffffffffffffffffffffffffffffffffffff1673ffffffffffffffffffffffffffffffffffffffff1603611bca576040517f259ba1ad00000000000000000000000000000000000000000000000000000000815260040160405180910390fd5b5f8303611c03576040517f22be228400000000000000000000000000000000000000000000000000000000815260040160405180910390fd5b8260075f8673ffffffffffffffffffffffffffffffffffffffff1673ffffffffffffffffffffffffffffffffffffffff1681526020019081526020015f20600201819055508160075f8673ffffffffffffffffffffffffffffffffffffffff1673ffffffffffffffffffffffffffffffffffffffff1681526020019081526020015f206003015f6101000a81548160ff0219169083151502179055508373ffffffffffffffffffffffffffffffffffffffff167f57d0af078d9ef37657bc2890de2b950b2ef2b6b59f8cc2c8f567dd24df0a3cd18484604051611ce79291906148dd565b60405180910390a250505050565b5f600680549050905090565b7fa49807205ce4d355092ef5a8a18f56e8913cf4a201fbe287825b095693c2177581565b611d2d61336e565b611d35613676565b5f8203611d6e576040517f2c5211c600000000000000000000000000000000000000000000000000000000815260040160405180910390fd5b5f60055f8381526020019081526020015f2090505f816002015403611dbf576040517f5f633df800000000000000000000000000000000000000000000000000000000815260040160405180910390fd5b806006015f9054906101000a900460ff16611e06576040517fe142361700000000000000000000000000000000000000000000000000000000815260040160405180910390fd5b8060020154831015611e44576040517f2c5211c600000000000000000000000000000000000000000000000000000000815260040160405180910390fd5b5f8160030154118015611e5a5750806003015483115b15611e91576040517f2c5211c600000000000000000000000000000000000000000000000000000000815260040160405180910390fd5b5f600260019054906101000a900473ffffffffffffffffffffffffffffffffffffffff1673ffffffffffffffffffffffffffffffffffffffff166370a08231306040518263ffffffff1660e01b8152600401611eed9190613f93565b602060405180830381865afa158015611f08573d5f803e3d5ffd5b505050506040513d601f19601f82011682018060405250810190611f2c9190614918565b9050611f7d333086600260019054906101000a900473ffffffffffffffffffffffffffffffffffffffff1673ffffffffffffffffffffffffffffffffffffffff166136b7909392919063ffffffff16565b5f600260019054906101000a900473ffffffffffffffffffffffffffffffffffffffff1673ffffffffffffffffffffffffffffffffffffffff166370a08231306040518263ffffffff1660e01b8152600401611fd99190613f93565b602060405180830381865afa158015611ff4573d5f803e3d5ffd5b505050506040513d601f19601f820116820180604052508101906120189190614918565b90508482826120279190614532565b1461205e576040517ff4d678b800000000000000000000000000000000000000000000000000000000815260040160405180910390fd5b5f60035f815480929190612071906144eb565b9190505590505f4290505f85600401548261208c9190614943565b90505f60095f8581526020019081526020015f20905083815f018190555033816001015f6101000a81548173ffffffffffffffffffffffffffffffffffffffff021916908373ffffffffffffffffffffffffffffffffffffffff1602179055508881600201819055508781600301819055508281600401819055508181600501819055505f816006015f6101000a81548160ff021916908315150217905550600a5f3373ffffffffffffffffffffffffffffffffffffffff1673ffffffffffffffffffffffffffffffffffffffff1681526020019081526020015f2084908060018154018082558091505060019003905f5260205f20015f90919091909150553373ffffffffffffffffffffffffffffffffffffffff16847fa26c9ce7e5e8c0b316b21906f4538c8002dcdae14c090dbcfca25bfb8b0947ba8b8b87876040516121d99493929190614976565b60405180910390a3505050505050506121f0613433565b5050565b60088181548110612203575f80fd5b905f5260205f20015f915054906101000a900473ffffffffffffffffffffffffffffffffffffffff1681565b606060055f8381526020019081526020015f206007018054806020026020016040519081016040528092919081815260200182805480156122c257602002820191905f5260205f20905b815f9054906101000a900473ffffffffffffffffffffffffffffffffffffffff1673ffffffffffffffffffffffffffffffffffffffff1681526020019060010190808311612279575b50505050509050919050565b5f600880549050905090565b6060600a5f8373ffffffffffffffffffffffffffffffffffffffff1673ffffffffffffffffffffffffffffffffffffffff1681526020019081526020015f2080548060200260200160405190810160405280929190818152602001828054801561236157602002820191905f5260205f20905b81548152602001906001019080831161234d575b50505050509050919050565b6123977fa49807205ce4d355092ef5a8a18f56e8913cf4a201fbe287825b095693c2177533612473565b806123c857506123c77fbf233dd2aafeb4d50879c4aa5c81e96d92f6e6945c906a58f9f2d1c1631b4b2633612473565b5b612407576040517f08c379a00000000000000000000000000000000000000000000000000000000081526004016123fe90614a29565b60405180910390fd5b61240f613739565b3373ffffffffffffffffffffffffffffffffffffffff167f81990fd9a5c552b8e3677917d8a03c07678f0d2cb68f88b634aca2022e9bd19f60405160405180910390a2565b5f8060095f8481526020019081526020015f205f015414159050919050565b5f805f8481526020019081526020015f205f015f8373ffffffffffffffffffffffffffffffffffffffff1673ffffffffffffffffffffffffffffffffffffffff1681526020019081526020015f205f9054906101000a900460ff16905092915050565b5f8060095f8581526020019081526020015f2090505f815f015403612527576040517f8c877d2100000000000000000000000000000000000000000000000000000000815260040160405180910390fd5b8060060160019054906101000a900460ff1615612547575f915050612812565b5f60055f836003015481526020019081526020015f2090505f8073ffffffffffffffffffffffffffffffffffffffff168573ffffffffffffffffffffffffffffffffffffffff161461259957846125bd565b600260019054906101000a900473ffffffffffffffffffffffffffffffffffffffff165b9050600260019054906101000a900473ffffffffffffffffffffffffffffffffffffffff1673ffffffffffffffffffffffffffffffffffffffff168173ffffffffffffffffffffffffffffffffffffffff160361264057620f42408260050154846002015461262c9190614592565b61263691906148ad565b9350505050612812565b5f73ffffffffffffffffffffffffffffffffffffffff1660075f8373ffffffffffffffffffffffffffffffffffffffff1673ffffffffffffffffffffffffffffffffffffffff1681526020019081526020015f206001015f9054906101000a900473ffffffffffffffffffffffffffffffffffffffff1673ffffffffffffffffffffffffffffffffffffffff16036126dd575f9350505050612812565b60075f8273ffffffffffffffffffffffffffffffffffffffff1673ffffffffffffffffffffffffffffffffffffffff1681526020019081526020015f206003015f9054906101000a900460ff16612739575f9350505050612812565b5f805b83600701805490508110156127d7578273ffffffffffffffffffffffffffffffffffffffff1684600701828154811061277857612777614491565b5b905f5260205f20015f9054906101000a900473ffffffffffffffffffffffffffffffffffffffff1673ffffffffffffffffffffffffffffffffffffffff16036127c457600191506127d7565b80806127cf906144eb565b91505061273c565b50806127e9575f945050505050612812565b620f4240836005015485600201546128019190614592565b61280b91906148ad565b9450505050505b92915050565b5f801b81565b5f805f805f805f805f60095f8b81526020019081526020015f2090505f815f015403612876576040517f8c877d2100000000000000000000000000000000000000000000000000000000815260040160405180910390fd5b805f0154816001015f9054906101000a900473ffffffffffffffffffffffffffffffffffffffff168260020154836003015484600401548560050154866006015f9054906101000a900460ff168760060160019054906101000a900460ff169850985098509850985098509850985050919395975091939597565b6128fa82611394565b6129038161335a565b61290d838361352c565b50505050565b7fbf233dd2aafeb4d50879c4aa5c81e96d92f6e6945c906a58f9f2d1c1631b4b2661293d8161335a565b5f73ffffffffffffffffffffffffffffffffffffffff168373ffffffffffffffffffffffffffffffffffffffff16036129a2576040517f2c5211c600000000000000000000000000000000000000000000000000000000815260040160405180910390fd5b5f82036129db576040517f2c5211c600000000000000000000000000000000000000000000000000000000815260040160405180910390fd5b5f8490505f8173ffffffffffffffffffffffffffffffffffffffff166370a08231306040518263ffffffff1660e01b8152600401612a199190613f93565b602060405180830381865afa158015612a34573d5f803e3d5ffd5b505050506040513d601f19601f82011682018060405250810190612a589190614918565b905080841115612a94576040517ff4d678b800000000000000000000000000000000000000000000000000000000815260040160405180910390fd5b5f8273ffffffffffffffffffffffffffffffffffffffff1663a9059cbb87876040518363ffffffff1660e01b8152600401612ad0929190614a47565b6020604051808303815f875af1158015612aec573d5f803e3d5ffd5b505050506040513d601f19601f82011682018060405250810190612b109190614a82565b905080612b49576040517f7c77b17000000000000000000000000000000000000000000000000000000000815260040160405180910390fd5b8573ffffffffffffffffffffffffffffffffffffffff168773ffffffffffffffffffffffffffffffffffffffff167f9495d03190a79a43e534c9e328ff322f6283261383f5f19c809564f6ad5a57b387604051612ba69190613e75565b60405180910390a350505050505050565b600260019054906101000a900473ffffffffffffffffffffffffffffffffffffffff1681565b7f89caa9c901210ccd1a8670bb882b6bafb334eb4b114af790aeee702939f7a1fe612c078161335a565b5f60055f8a81526020019081526020015f206002015403612c54576040517f5f633df800000000000000000000000000000000000000000000000000000000815260040160405180910390fd5b5f8603612c8d576040517f2c5211c600000000000000000000000000000000000000000000000000000000815260040160405180910390fd5b5f8403612cc6576040517f1578094300000000000000000000000000000000000000000000000000000000815260040160405180910390fd5b5f85118015612cd55750858511155b15612d0c576040517f561ce9bb00000000000000000000000000000000000000000000000000000000815260040160405180910390fd5b5f6201518085612d1c9190614592565b90505f60055f8b81526020019081526020015f20600701805480602002602001604051908101604052809291908181526020018280548015612db057602002820191905f5260205f20905b815f9054906101000a900473ffffffffffffffffffffffffffffffffffffffff1673ffffffffffffffffffffffffffffffffffffffff1681526020019060010190808311612d67575b505050505090506040518061010001604052808b81526020018a815260200189815260200188815260200183815260200186815260200185151581526020018281525060055f8c81526020019081526020015f205f820151815f01556020820151816001019081612e219190614767565b5060408201518160020155606082015181600301556080820151816004015560a0820151816005015560c0820151816006015f6101000a81548160ff02191690831515021790555060e0820151816007019080519060200190612e859291906138c7565b50905050897f9979791f6172b0c91ecd65210ba4d96cbef0cab966d573bf9d6876e635900a5f8a8a858989604051612ec1959493929190614aad565b60405180910390a250505050505050505050565b6007602052805f5260405f205f91509050805f018054612ef490614461565b80601f0160208091040260200160405190810160405280929190818152602001828054612f2090614461565b8015612f6b5780601f10612f4257610100808354040283529160200191612f6b565b820191905f5260205f20905b815481529060010190602001808311612f4e57829003601f168201915b505050505090806001015f9054906101000a900473ffffffffffffffffffffffffffffffffffffffff1690806002015490806003015f9054906101000a900460ff16905084565b7f0b84ee281e5cf521a9ad54a86fafe78946b157177e231bd8ae785af4d3b3620f612fdc8161335a565b5f73ffffffffffffffffffffffffffffffffffffffff168473ffffffffffffffffffffffffffffffffffffffff1603613041576040517f2c5211c600000000000000000000000000000000000000000000000000000000815260040160405180910390fd5b5f820361307a576040517f22be228400000000000000000000000000000000000000000000000000000000815260040160405180910390fd5b5f73ffffffffffffffffffffffffffffffffffffffff1660075f8673ffffffffffffffffffffffffffffffffffffffff1673ffffffffffffffffffffffffffffffffffffffff1681526020019081526020015f206001015f9054906101000a900473ffffffffffffffffffffffffffffffffffffffff1673ffffffffffffffffffffffffffffffffffffffff161461313e576040517f70d8436400000000000000000000000000000000000000000000000000000000815260040160405180910390fd5b60405180608001604052808481526020018573ffffffffffffffffffffffffffffffffffffffff1681526020018381526020016001151581525060075f8673ffffffffffffffffffffffffffffffffffffffff1673ffffffffffffffffffffffffffffffffffffffff1681526020019081526020015f205f820151815f0190816131c89190614767565b506020820151816001015f6101000a81548173ffffffffffffffffffffffffffffffffffffffff021916908373ffffffffffffffffffffffffffffffffffffffff160217905550604082015181600201556060820151816003015f6101000a81548160ff021916908315150217905550905050600884908060018154018082558091505060019003905f5260205f20015f9091909190916101000a81548173ffffffffffffffffffffffffffffffffffffffff021916908373ffffffffffffffffffffffffffffffffffffffff1602179055508373ffffffffffffffffffffffffffffffffffffffff167f1519fb16e1e4c052e66d775c1f3015ee1ce929c11b8298284399501d55f898a084846040516132e3929190614b05565b60405180910390a250505050565b5f7f01ffc9a7000000000000000000000000000000000000000000000000000000007bffffffffffffffffffffffffffffffffffffffffffffffffffffffff1916827bffffffffffffffffffffffffffffffffffffffffffffffffffffffff1916149050919050565b61336b81613366613525565b61379b565b50565b6002600154036133aa576040517f3ee5aeb500000000000000000000000000000000000000000000000000000000815260040160405180910390fd5b6002600181905550565b61342e838473ffffffffffffffffffffffffffffffffffffffff1663a9059cbb85856040516024016133e7929190614a47565b604051602081830303815290604052915060e01b6020820180517bffffffffffffffffffffffffffffffffffffffffffffffffffffffff83818316178352505050506137ec565b505050565b60018081905550565b5f6134478383612473565b61351b5760015f808581526020019081526020015f205f015f8473ffffffffffffffffffffffffffffffffffffffff1673ffffffffffffffffffffffffffffffffffffffff1681526020019081526020015f205f6101000a81548160ff0219169083151502179055506134b8613525565b73ffffffffffffffffffffffffffffffffffffffff168273ffffffffffffffffffffffffffffffffffffffff16847f2f8788117e7eff1d82e926ec794901d17c78024a50270940304540a733656f0d60405160405180910390a46001905061351f565b5f90505b92915050565b5f33905090565b5f6135378383612473565b1561360b575f805f8581526020019081526020015f205f015f8473ffffffffffffffffffffffffffffffffffffffff1673ffffffffffffffffffffffffffffffffffffffff1681526020019081526020015f205f6101000a81548160ff0219169083151502179055506135a8613525565b73ffffffffffffffffffffffffffffffffffffffff168273ffffffffffffffffffffffffffffffffffffffff16847ff6391f5c32d9c69d2a47ea670b442974b53935d1edc7fd64eb21e047a839171b60405160405180910390a46001905061360f565b5f90505b92915050565b61361d613887565b5f60025f6101000a81548160ff0219169083151502179055507f5db9ee0a495bf2e6ff9c91a7834c1ba4fdd244a5e8aa4e537bd38aeae4b073aa61365f613525565b60405161366c9190613f93565b60405180910390a1565b61367e611ac7565b156136b5576040517fd93c066500000000000000000000000000000000000000000000000000000000815260040160405180910390fd5b565b613733848573ffffffffffffffffffffffffffffffffffffffff166323b872dd8686866040516024016136ec93929190614b33565b604051602081830303815290604052915060e01b6020820180517bffffffffffffffffffffffffffffffffffffffffffffffffffffffff83818316178352505050506137ec565b50505050565b613741613676565b600160025f6101000a81548160ff0219169083151502179055507f62e78cea01bee320cd4e420270b5ea74000d11b0c9f74754ebdbfc544b05a258613784613525565b6040516137919190613f93565b60405180910390a1565b6137a58282612473565b6137e85780826040517fe2517d3f0000000000000000000000000000000000000000000000000000000081526004016137df929190614b68565b60405180910390fd5b5050565b5f8060205f8451602086015f885af18061380b576040513d5f823e3d81fd5b3d92505f519150505f821461382457600181141561383f565b5f8473ffffffffffffffffffffffffffffffffffffffff163b145b1561388157836040517f5274afe70000000000000000000000000000000000000000000000000000000081526004016138789190613f93565b60405180910390fd5b50505050565b61388f611ac7565b6138c5576040517f8dfc202b00000000000000000000000000000000000000000000000000000000815260040160405180910390fd5b565b828054828255905f5260205f2090810192821561393d579160200282015b8281111561393c578251825f6101000a81548173ffffffffffffffffffffffffffffffffffffffff021916908373ffffffffffffffffffffffffffffffffffffffff160217905550916020019190600101906138e5565b5b50905061394a919061394e565b5090565b5b80821115613965575f815f90555060010161394f565b5090565b5f604051905090565b5f80fd5b5f80fd5b5f7fffffffff0000000000000000000000000000000000000000000000000000000082169050919050565b6139ae8161397a565b81146139b8575f80fd5b50565b5f813590506139c9816139a5565b92915050565b5f602082840312156139e4576139e3613972565b5b5f6139f1848285016139bb565b91505092915050565b5f8115159050919050565b613a0e816139fa565b82525050565b5f602082019050613a275f830184613a05565b92915050565b5f819050919050565b613a3f81613a2d565b8114613a49575f80fd5b50565b5f81359050613a5a81613a36565b92915050565b5f60208284031215613a7557613a74613972565b5b5f613a8284828501613a4c565b91505092915050565b613a9481613a2d565b82525050565b5f81519050919050565b5f82825260208201905092915050565b5f5b83811015613ad1578082015181840152602081019050613ab6565b5f8484015250505050565b5f601f19601f8301169050919050565b5f613af682613a9a565b613b008185613aa4565b9350613b10818560208601613ab4565b613b1981613adc565b840191505092915050565b5f60e082019050613b375f83018a613a8b565b8181036020830152613b498189613aec565b9050613b586040830188613a8b565b613b656060830187613a8b565b613b726080830186613a8b565b613b7f60a0830185613a8b565b613b8c60c0830184613a05565b98975050505050505050565b5f73ffffffffffffffffffffffffffffffffffffffff82169050919050565b5f613bc182613b98565b9050919050565b613bd181613bb7565b8114613bdb575f80fd5b50565b5f81359050613bec81613bc8565b92915050565b5f8060408385031215613c0857613c07613972565b5b5f613c1585828601613a4c565b9250506020613c2685828601613bde565b9150509250929050565b5f80fd5b5f80fd5b7f4e487b71000000000000000000000000000000000000000000000000000000005f52604160045260245ffd5b613c6e82613adc565b810181811067ffffffffffffffff82111715613c8d57613c8c613c38565b5b80604052505050565b5f613c9f613969565b9050613cab8282613c65565b919050565b5f67ffffffffffffffff821115613cca57613cc9613c38565b5b613cd382613adc565b9050602081019050919050565b828183375f83830152505050565b5f613d00613cfb84613cb0565b613c96565b905082815260208101848484011115613d1c57613d1b613c34565b5b613d27848285613ce0565b509392505050565b5f82601f830112613d4357613d42613c30565b5b8135613d53848260208601613cee565b91505092915050565b5f805f805f60a08688031215613d7557613d74613972565b5b5f86013567ffffffffffffffff811115613d9257613d91613976565b5b613d9e88828901613d2f565b9550506020613daf88828901613a4c565b9450506040613dc088828901613a4c565b9350506060613dd188828901613a4c565b9250506080613de288828901613a4c565b9150509295509295909350565b5f819050919050565b613e0181613def565b82525050565b5f602082019050613e1a5f830184613df8565b92915050565b613e2981613def565b8114613e33575f80fd5b50565b5f81359050613e4481613e20565b92915050565b5f60208284031215613e5f57613e5e613972565b5b5f613e6c84828501613e36565b91505092915050565b5f602082019050613e885f830184613a8b565b92915050565b5f8060408385031215613ea457613ea3613972565b5b5f613eb185828601613e36565b9250506020613ec285828601613bde565b9150509250929050565b613ed5816139fa565b8114613edf575f80fd5b50565b5f81359050613ef081613ecc565b92915050565b5f805f60608486031215613f0d57613f0c613972565b5b5f613f1a86828701613bde565b9350506020613f2b86828701613a4c565b9250506040613f3c86828701613ee2565b9150509250925092565b5f8060408385031215613f5c57613f5b613972565b5b5f613f6985828601613a4c565b9250506020613f7a85828601613a4c565b9150509250929050565b613f8d81613bb7565b82525050565b5f602082019050613fa65f830184613f84565b92915050565b5f81519050919050565b5f82825260208201905092915050565b5f819050602082019050919050565b613fde81613bb7565b82525050565b5f613fef8383613fd5565b60208301905092915050565b5f602082019050919050565b5f61401182613fac565b61401b8185613fb6565b935061402683613fc6565b805f5b8381101561405657815161403d8882613fe4565b975061404883613ffb565b925050600181019050614029565b5085935050505092915050565b5f6020820190508181035f83015261407b8184614007565b905092915050565b5f6020828403121561409857614097613972565b5b5f6140a584828501613bde565b91505092915050565b5f81519050919050565b5f82825260208201905092915050565b5f819050602082019050919050565b6140e081613a2d565b82525050565b5f6140f183836140d7565b60208301905092915050565b5f602082019050919050565b5f614113826140ae565b61411d81856140b8565b9350614128836140c8565b805f5b8381101561415857815161413f88826140e6565b975061414a836140fd565b92505060018101905061412b565b5085935050505092915050565b5f6020820190508181035f83015261417d8184614109565b905092915050565b5f610100820190506141995f83018b613a8b565b6141a6602083018a613f84565b6141b36040830189613a8b565b6141c06060830188613a8b565b6141cd6080830187613a8b565b6141da60a0830186613a8b565b6141e760c0830185613a05565b6141f460e0830184613a05565b9998505050505050505050565b5f805f6060848603121561421857614217613972565b5b5f61422586828701613bde565b935050602061423686828701613bde565b925050604061424786828701613a4c565b9150509250925092565b5f819050919050565b5f61427461426f61426a84613b98565b614251565b613b98565b9050919050565b5f6142858261425a565b9050919050565b5f6142968261427b565b9050919050565b6142a68161428c565b82525050565b5f6020820190506142bf5f83018461429d565b92915050565b5f805f805f805f60e0888a0312156142e0576142df613972565b5b5f6142ed8a828b01613a4c565b975050602088013567ffffffffffffffff81111561430e5761430d613976565b5b61431a8a828b01613d2f565b965050604061432b8a828b01613a4c565b955050606061433c8a828b01613a4c565b945050608061434d8a828b01613a4c565b93505060a061435e8a828b01613a4c565b92505060c061436f8a828b01613ee2565b91505092959891949750929550565b5f6080820190508181035f8301526143968187613aec565b90506143a56020830186613f84565b6143b26040830185613a8b565b6143bf6060830184613a05565b95945050505050565b5f805f606084860312156143df576143de613972565b5b5f6143ec86828701613bde565b935050602084013567ffffffffffffffff81111561440d5761440c613976565b5b61441986828701613d2f565b925050604061442a86828701613a4c565b9150509250925092565b7f4e487b71000000000000000000000000000000000000000000000000000000005f52602260045260245ffd5b5f600282049050600182168061447857607f821691505b60208210810361448b5761448a614434565b5b50919050565b7f4e487b71000000000000000000000000000000000000000000000000000000005f52603260045260245ffd5b7f4e487b71000000000000000000000000000000000000000000000000000000005f52601160045260245ffd5b5f6144f582613a2d565b91507fffffffffffffffffffffffffffffffffffffffffffffffffffffffffffffffff8203614527576145266144be565b5b600182019050919050565b5f61453c82613a2d565b915061454783613a2d565b925082820390508181111561455f5761455e6144be565b5b92915050565b7f4e487b71000000000000000000000000000000000000000000000000000000005f52603160045260245ffd5b5f61459c82613a2d565b91506145a783613a2d565b92508282026145b581613a2d565b915082820484148315176145cc576145cb6144be565b5b5092915050565b5f819050815f5260205f209050919050565b5f6020601f8301049050919050565b5f82821b905092915050565b5f6008830261462f7fffffffffffffffffffffffffffffffffffffffffffffffffffffffffffffffff826145f4565b61463986836145f4565b95508019841693508086168417925050509392505050565b5f61466b61466661466184613a2d565b614251565b613a2d565b9050919050565b5f819050919050565b61468483614651565b61469861469082614672565b848454614600565b825550505050565b5f90565b6146ac6146a0565b6146b781848461467b565b505050565b5b818110156146da576146cf5f826146a4565b6001810190506146bd565b5050565b601f82111561471f576146f0816145d3565b6146f9846145e5565b81016020851015614708578190505b61471c614714856145e5565b8301826146bc565b50505b505050565b5f82821c905092915050565b5f61473f5f1984600802614724565b1980831691505092915050565b5f6147578383614730565b9150826002028217905092915050565b61477082613a9a565b67ffffffffffffffff81111561478957614788613c38565b5b6147938254614461565b61479e8282856146de565b5f60209050601f8311600181146147cf575f84156147bd578287015190505b6147c7858261474c565b86555061482e565b601f1984166147dd866145d3565b5f5b82811015614804578489015182556001820191506020850194506020810190506147df565b86831015614821578489015161481d601f891682614730565b8355505b6001600288020188555050505b505050505050565b5f6080820190508181035f83015261484e8187613aec565b905061485d6020830186613a8b565b61486a6040830185613a8b565b6148776060830184613a8b565b95945050505050565b7f4e487b71000000000000000000000000000000000000000000000000000000005f52601260045260245ffd5b5f6148b782613a2d565b91506148c283613a2d565b9250826148d2576148d1614880565b5b828204905092915050565b5f6040820190506148f05f830185613a8b565b6148fd6020830184613a05565b9392505050565b5f8151905061491281613a36565b92915050565b5f6020828403121561492d5761492c613972565b5b5f61493a84828501614904565b91505092915050565b5f61494d82613a2d565b915061495883613a2d565b92508282019050808211156149705761496f6144be565b5b92915050565b5f6080820190506149895f830187613a8b565b6149966020830186613a8b565b6149a36040830185613a8b565b6149b06060830184613a8b565b95945050505050565b7f43616c6c6572206d75737420686176652061646d696e206f7220656d657267655f8201527f6e637920726f6c65000000000000000000000000000000000000000000000000602082015250565b5f614a13602883613aa4565b9150614a1e826149b9565b604082019050919050565b5f6020820190508181035f830152614a4081614a07565b9050919050565b5f604082019050614a5a5f830185613f84565b614a676020830184613a8b565b9392505050565b5f81519050614a7c81613ecc565b92915050565b5f60208284031215614a9757614a96613972565b5b5f614aa484828501614a6e565b91505092915050565b5f60a0820190508181035f830152614ac58188613aec565b9050614ad46020830187613a8b565b614ae16040830186613a8b565b614aee6060830185613a8b565b614afb6080830184613a05565b9695505050505050565b5f6040820190508181035f830152614b1d8185613aec565b9050614b2c6020830184613a8b565b9392505050565b5f606082019050614b465f830186613f84565b614b536020830185613f84565b614b606040830184613a8b565b949350505050565b5f604082019050614b7b5f830185613f84565b614b886020830184613df8565b939250505056fea264697066735822122044c188ade9bbbf728ac93b74d4ee36b5a060eb36654dd41d0916de23d0c478e864736f6c63430008140033","linkReferences":{}},"methodIdentifiers":{"ADMIN_ROLE()":"75b238fc","DEFAULT_ADMIN_ROLE()":"a217fddf","EMERGENCY_ROLE()":"20df4359","FUND_MANAGER_ROLE()":"2f83a6bc","TIER_MANAGER_ROLE()":"2a2b6a72","addRewardTokenToTier(uint256,address)":"2cf320d2","addTier(string,uint256,uint256,uint256,uint256)":"195ea247","calculateReward(uint256,address)":"a18f07a0","claimRewardsAndWithdraw(uint256)":"1bf85d1d","emergencyWithdraw(address,address,uint256)":"e63ea408","getRewardTokenCount()":"82e5d073","getRoleAdmin(bytes32)":"248a9ca3","getStake(uint256)":"ce325bf8","getTierCount()":"67184e28","getTierRewardTokens(uint256)":"7c9984e3","getUserStakes(address)":"842e2981","grantRole(bytes32,address)":"2f2ff15d","hasClaimedRewards(uint256)":"55f5576e","hasRole(bytes32,address)":"91d14854","kttyToken()":"ed19ecc5","pause()":"8456cb59","paused()":"5c975abb","registerRewardToken(address,string,uint256)":"f9b23b04","removeRewardTokenFromTier(uint256,address)":"167a3001","renounceRole(bytes32,address)":"36568abe","revokeRole(bytes32,address)":"d547741f","rewardTokenAddresses(uint256)":"7b2d9b2c","rewardTokens(address)":"f5ab16cc","stake(uint256,uint256)":"7b0472f0","stakeExists(uint256)":"8de21a57","supportsInterface(bytes4)":"01ffc9a7","tierIds(uint256)":"2f285709","tiers(uint256)":"039af9eb","unpause()":"3f4ba83a","updateRewardToken(address,uint256,bool)":"60c59020","updateTier(uint256,string,uint256,uint256,uint256,uint256,bool)":"f0eaf127","withdraw(uint256)":"2e1a7d4d"},"id":40}